:020000040000FA
:100000000C94F2180C946B8F0C94408F0C94158FF9
:100010000C94EA8E0C94BF8E0C94948E0C94698E82
:100020000C943E8E0C9462940C9462940C946294A2
:100030000C9423190C9423190C9423190C94231950
:100040000C9423190C94F4910C9423190C942319F7
:100050000C9423190C9423190C9423190C947D8D62
:100060000C9423190C94CA910C94A0910C9423190C
:100070000C9423190C9423190C9423190C94231910
:100080000C9423190C9423190C9423190C94CB96DB
:100090000C9476910C944C910C9423190C94A79584
:1000A0000C9423190C9423190C9423190C942319E0
:1000B0000C9423190C9423190C9423190C942319D0
:1000C0000C9423190C9423190C9423190C94229149
:1000D0000C94F8900C9423190C94CE900C94A4904A
:1000E0000C9423190C94EC560C943D450C94917F80
:1000F0000C94C0310C94E0560C946D1A0C94C445C9
:100100000C9453440C9496560C94B0560C94284A74
:100110000C94E1250C9495790C94D7820C94931A45
:100120000C94BF440C94EA560C94577A0C948E4568
:100130000C94B4560C94D2240C94D4560C94F31A08
:100140000C9437820C94D57A0C94D11A0C94A9791A
:100150000C9416650C94515E0C94B11A0C94911A7F
:100160000C94511A0C94DF450C941E380C943445B1
:100170000C94E1790C94F0250C94B8560C941E5410
:100180000C94071B0C9458450C94E31A0C94327B86
:100190000C94B1790C94A62C0C943C430C94D57916
:1001A0000C94551A0C9403610C94229A0C94CF1A57
:1001B0000C94011B0C94D2560C949F7F0C94545EAB
:1001C0000C9442460C94D6240C94CD450C947F1A82
:1001D0000C94B6560C9418430C94A11A0C94DE534C
:1001E0000C9460430C94B54A0C940C570C94167CF8
:1001F0000C94A8430C94891A0C9400570C948944CD
:100200000C94AA820C9488820C94091B0C94A188EB
:100210000C9439460C940A570C946C6F0C947744E8
:100220000C94BD1A0C94B2560C941E460C940C26D9
:100230000C946E560C940B440C94C5790C946F5A24
:100240000C94D99B0C94BC560C946E4E0C944D4E51
:100250000C949C560C94831A0C94EE5A0C94771AB6
:100260000C94E91A0C94D27B0C94461A0C94EF1A55
:100270000C94137D0C94051B0C94D4260C94BA7A20
:100280000C94D9880C94A27F0C94C4810C94DF1A2E
:100290000C941A380C94C8560C94DC560C945C7E62
:1002A0000C94A84A0C94F11A0C94D7610C94E95D53
:1002B0000C9406890C94972C0C941E7B0C94991A20
:1002C0000C94687B0C94CD1A0C948D430C94A72548
:1002D0000C94C2600C94A09A0C946B1A0C94396024
:1002E0000C9433430C94631A0C9402440C94B81984
:1002F0000C94F4420C949D790C94BA430C94CA5615
:100300000C940F430C949E560C94A3460C940346F5
:100310000C94C05A0C94F29B0C94467C0C94BC80B8
:100320000C94B91A0C94491A0C94C11A0C94455E99
:100330000C94D5430C944F450C946C560C94A945E1
:100340000C9410450C947B7F0C94AB880C948F4ECE
:100350000C9474560C9458820C946D610C948E56C7
:100360000C9472560C9412360C94647F0C943C7B63
:100370000C94485E0C944E5E0C94C0560C945D5EDA
:100380000C94E07C0C94811A0C946A450C94F77FD1
:100390000C94BC190C94F51A0C94475F0C94C78804
:1003A0000C94E8560C94607F0C94C4560C94B58859
:1003B0000C94DA560C9421430C940F5C0C94C31AE1
:1003C0000C949B7F0C9481790C94711A0C94575E59
:1003D0000C94C3430C9470560C94F8560C94154628
:1003E0000C942B450C9407450C94EE560C94871AEC
:1003F0000C945B1A0C94FD1A0C94BF1A0C94575A67
:100400000C9406430C94531A0C9438440C94F256F2
:100410000C945B820C946F800C94591A0C94A9363E
:100420000C94C5810C94E71A0C942E890C94AB1A89
:100430000C945A5E0C94BD790C948D7F0C94AE692B
:100440000C9476560C94C71A0C9484560C9414444D
:100450000C942A5F0C94E2340C9494880C94CE563D
:100460000C949C880C94971A0C94571A0C9473450E
:100470000C9467600C948A560C9485450C949F1AD2
:100480000C94D71A0C942F440C94797C0C94CC4384
:100490000C94F1450C94751A0C94EC440C949B1A32
:1004A0000C9427460C94BA4A0C942A430C94CC56CC
:1004B0000C94425E0C94A17F0C9424890C94397A9C
:1004C0000C94DE430C9490560C94A4440C94694311
:1004D0000C9480440C949B440C94A4560C94A31A42
:1004E0000C94B1430C94E5790C94FE440C94AF7CCD
:1004F0000C949D1A0C947C560C940C460C94499ABE
:100500000C94AC810C9419450C94F6560C947856C6
:100510000C9446450C94611A0C9498560C941A57F6
:100520000C9497820C94AF1A0C94C8440C945D1AE6
:100530000C94ED880C94567F0C9406570C948B1AEF
:100540000C94967B0C94D8560C9466560C94625678
:100550000C947B1A0C9472430C94757F0C944E9AF5
:100560000C9410890C947E950C94687F0C94DB1A83
:100570000C94702C0C94AB4D0C94837F0C945C7F8A
:100580000C94AF4A0C949A2C0C9478790C942057C4
:100590000C94F0560C94E87F0C947E560C94997948
:1005A0000C94717F0C94A07F0C94851A0C94BB1A48
:1005B0000C94BF880C94D91A0C9473790C94977F7F
:1005C0000C94A8560C94C6560C94C2560C94A25681
:1005D0000C9480600C9440260C94C44A0C94A04562
:1005E0000C946A560C9430460C9465440C94AA56AC
:1005F0000C94031B0C94A32C0C94B31A0C94E74397
:100600000C94A9460C9425260C94AF550C94844365
:100610000C941C570C9433270C94AC560C94CC4D72
:100620000C94AC6F0C94731A0C94691A0C94E11A24
:100630000C94417D0C94F91A0C947A560C946156E2
:100640000C9422570C94DD1A0C941E570C94BB4545
:100650000C94FC560C9410570C94E4560C94451BC7
:100660000C94B2450C945F1A0C94285E0C94805A3A
:100670000C948D1A0C94D51A0C9489790C94BA5652
:100680000C94A71A0C949D2C0C945D9A0C94576FA3
:100690000C94CD5A0C94D0560C94DD6F0C94137BB3
:1006A0000C94EB420C94145F0C94912C0C942182CA
:1006B0000C94FD420C94CB550C9464560C94AD25CF
:1006C0000C948F1A0C945E300C94A6560C9402571E
:1006D0000C94F71A0C948D7A0C9445430C94414475
:1006E0000C94FA4D0C948D790C94D31A0C944D1AE9
:1006F0000C949A560C9426440C94B71A0C947D1AB8
:100700000C94E3880C94B5790C9441300C941B4EF6
:100710000C9496430C9491790C948B5A0C94BE567D
:100720000C94FA560C947F7F0C9419800C942F70C3
:100730000C94CB1A0C94719A0C94DC270C94F5440D
:100740000C94055F0C94C91A0C944B1A0C947C45BC
:100750000C94D1440C94ED790C94E2560C94CA2577
:100760000C94E51A0C94D6450C94CF880C94F67A28
:100770000C946E440C94B6750C94791A0C946145E3
:100780000C94C51A0C942E5E0C946F1A0C944F1A8C
:100790000C941D440C94A0560C94942C0C948C56E0
:1007A0000C94FA450C9486560C947B430C94085791
:1007B0000C940B800C94E8230C94287B0C94964AA0
:1007C0000C94E6560C94B47B0C94A92C0C94671AE8
:1007D0000C94FE560C94897F0C94A5790C94F943E3
:1007E0000C94AD440C94967F0C949D840C940F65EE
:1007F0000C9422450C9480560C94AB7A0C944E4386
:100800000C94AD1A0C9482560C944A440C94E34414
:100810000C9457430C941A890C94651A0C94A04AB2
:100820000C94951A0C94A02C0C94ED1A0C9412575D
:100830000C9492440C94C3330C94361B0C94D179D1
:100840000C945E820C944B5E0C9488560C94AE56BD
:100850000C94B9790C946B7F0C94A1790C949F4300
:100860000C945C240C94DD790C94FF1A0C94925631
:100870000C9404570C9485790C945C440C94EA42D3
:100880000C94B51A0C94EB1A0C9468560C94D97904
:100890000C940E570C94E0420C94F4560C9414579C
:1008A0000C9416570C945E7B0C94CD790C94C979FA
:1008B0000C94A91A0C945B6F0C949F260C94605AAC
:1008C0000C940B830C9494560C94471A0C94C17995
:1008D0000C94D97B0C94F0430C94A51A0C94974576
:1008E0000C94DA440C94B6440C9418570C94E845D4
:1008F0000C94D6560C94FC880C94E9790C94DE5632
:100900000C94FB1A0C94AD79204F4E20202020200F
:10091000202020202020202000204F46462020207C
:1009200020202020202020202000204E4F49534509
:100930002020202020202020202000204E4F49531E
:10094000452020202020202020202000204E4F491C
:1009500053452020202020202020202000204E4F02
:1009600049534520202020202020202020002057EF
:1009700041564520262050554C534520202000202C
:1009800057415645202020202020202020202000D4
:100990002050554C5345202020202020202020206E
:1009A00000204F46462020202020202020202020EC
:1009B0002000204841524445522020202020202061
:1009C00020200020484152442020202020202020A8
:1009D0002020200020534F4654202020202020207B
:1009E0002020202000204F464620202020202020AC
:1009F00020202020200053414D504C4544204D4F95
:100A000044554C415445004E4F4953452020202029
:100A1000202020202020200052414E444F4D2020F5
:100A200020202020202020200053515541524520D5
:100A300020202020202020202000444F574E2053EB
:100A400041572020202020202020005550205341B5
:100A500057202020202020202020200054524941CF
:100A60004E474C45202020202020202000205F449D
:100A700045564943455F445F2020202000205F44C5
:100A800045564943455F435F2020202000205F44B6
:100A900045564943455F425F2020202000205F44A7
:100AA00045564943455F415F2020202000204443B4
:100AB0004F3120434C494320202020200020444334
:100AC0004F312057415645464F524D200020444358
:100AD0004F2053594E43204D4F444520002044435E
:100AE0004F312057415645464F524D200020444338
:100AF0004F322057415645464F524D200020554E0B
:100B0000555345442044494E3232202000204C4663
:100B10004F32205741564553484150452000204C04
:100B2000464F3120574156455348415045200020FB
:100B30005F46325F2020202020202020202000201F
:100B40005F53484946545F20202020202020002069
:100B50005F414C545F2020202020202020200020B6
:100B6000554E555345442044494E313620200020EF
:100B70005F504147455F202020202020202000207A
:100B80005F4B4559355F2020202020202020002069
:100B90005F4B4559345F202020202020202000205A
:100BA0005F4B4559335F202020202020202000204B
:100BB0005F4445435F20202020202020202000206B
:100BC0005F494E435F20202020202020202000204D
:100BD0005F4B4559315F202020202020202000201D
:100BE0005F4B4559325F202020202020202000200C
:100BF0005F4346475F202020202020202020002027
:100C00005F4152505F202020202020202020002003
:100C10005F454449545F20202020202020200020D0
:100C20005F50415443485F20202020202020002096
:100C300044434F3220434C494320202020200020B1
:100C400044434F322057415645464F524D200020D5
:100C50005F46315F202020202020202020200020FF
:100C600044434F322057415645464F524D20004C89
:100C7000464F32205350454544202F4B42442000DC
:100C8000454E56332052454C4541534520202020A7
:100C9000004C464F3220414D50202F52414D503292
:100CA0002000454E56332044454341592020202002
:100CB0002020004C464F3120414D50202F52414DB5
:100CC00050312000454E56332041545441434B206F
:100CD00020202020004C464F3120535045454420D1
:100CE0002F5052532000454E5633205355535441F4
:100CF000494E2020202000454E563120414D5020A5
:100D00002F56454C4F202000454E563220414D5025
:100D10004C4954554445202000454E563320414D02
:100D2000504C495455444520200044434F322050F4
:100D300057202F4C464F322020200044434F322072
:100D400050572020202020202020200044434F32D4
:100D500020444554554E4520202020200044434F38
:100D60003220574156452053484150452000454EBA
:100D7000563120414D504C495455444520200044A3
:100D8000434F3220462F4C464F3120202020200058
:100D9000554E49534F4E20444554554E4520202032
:100DA0000044434F3220465245512020202020202D
:100DB000200044434F312050572020202020202065
:100DC00020200044434F2042414C414E43452020C7
:100DD0002020200044434F31205057202F4C464FB5
:100DE0003220202000504F5254412052415445207F
:100DF00020202020200044434F31205741564520D9
:100E000053484150452000504F525441202F5645E1
:100E10004C4F20202020200056434620465245516A
:100E200020435554202020200056434620464D2F75
:100E30005052532020202020200044434F31204690
:100E40005245512020202020202000564341202FB1
:100E5000454E5632202020202020200044434F3190
:100E60002046202F4C464F31202020200056434161
:100E7000202F56454C4F2020202020202000564374
:100E80004620464D202F454E563320202020004C32
:100E9000464F32205350454544202020202020003A
:100EA000454E56322052454C454153452020202086
:100EB000004C464F3220414D504C4954554445203A
:100EC0002000454E563220444543415920202020E1
:100ED0002020004C464F3120414D504C4954554440
:100EE00045202000454E56322041545441434B206A
:100EF00020202020004C464F3120535045454420AF
:100F0000202020202000454E563220535553544176
:100F1000494E2020202000454E56312052454C4558
:100F20004153452020202000454E56312044454362
:100F3000415920202020202000454E563120535575
:100F4000535441494E202020200044434F3220502A
:100F500057202F4C464F322020200044434F322050
:100F600050572020202020202020200044434F32B2
:100F700020444554554E4520202020200044434F16
:100F80003220574156452053484150452000454E98
:100F900056312041545441434B202020202000440E
:100FA000434F322046202F4C464F31202020200036
:100FB000554E49534F4E20444554554E4520202010
:100FC0000044434F3220465245512020202020200B
:100FD000200044434F312050572020202020202043
:100FE00020200044434F2042414C414E43452020A5
:100FF0002020200044434F31205057202F4C464F93
:10100000322020200052414D502031205241544581
:1010100020202020200044434F31205741564520B6
:101020005348415045200052414D502032205241FA
:10103000544520202020200056434620465245514A
:101040002043555420202020005643462046202F80
:101050005052532020202020200044434F3120466E
:101060005245512020202020202000564346204673
:101070004D202020202020202020200044434F31DC
:101080002046202F4C464F3120202020005643463A
:10109000205245534F20202020202020200056435E
:1010A000462046202F454E56312020202020004546
:1010B0005854004D4C540053474C002D2D2D002DFD
:1010C0002D2D2D004C464F3100474C464F004E4FC2
:1010D000524D0045582B4D4C542B525354004558FB
:1010E00054524E2B4D4C544900455854524E2B529D
:1010F0005345540045585445524E2020202000525C
:10110000455345542B4D4C5449004D554C544920A2
:10111000202020200052455345542020202020002C
:101120002D2D2D2D2D2D2D2D2D2D00424F544820B0
:1011300020202000465245452D52554E0044414442
:101140005220202020002D2D2D2D2D2D2D2D005213
:101150004541532F524F4200554E49534F4E202088
:1011600000524F54415445202000524541535349A9
:10117000474E004558504F4E454E5432004558504A
:101180004F4E454E543100434F4E532D54494D451B
:1011900000434F4E532D535045440045585447414A
:1011A00054450045585445524E20004D554C544925
:1011B00020200053494E474C452000504F52544187
:1011C0004D544F004C464F322D414D50004C464F30
:1011D000322D535044004C464F312D414D50004C60
:1011E000464F312D53504400454E56332D414D50FE
:1011F00000454E56332D524C5300454E56332D4428
:101200004B5900454E56332D41544B00454E5633F5
:101210002D444C5900454E56322D414D5000454EFF
:1012200056322D524C5300454E56322D444B5900E8
:10123000454E56322D41544B00454E56322D444CAE
:101240005900454E56312D414D5000454E56312DD9
:10125000524C5300454E56312D444B5900454E5685
:10126000312D41544B00454E56312D444C590056BA
:101270004341322D4C455600564341312D4C455685
:1012800000464C54522D52455300464C54522D4664
:10129000525100464D2D414D4E5420004F53432D89
:1012A0004D495820004F53322D57534850004F534B
:1012B000322D504C5357004F53322D46524551005A
:1012C0004F53312D57534850004F53312D504C53ED
:1012D00057004F53312D46524551002D2D2D2D2DA8
:1012E0002D2D2D004C455633004C455632004C45B3
:1012F000563100504544320050454431005052456B
:1013000053005256454C0056454C4F0047415445FA
:10131000005452414B00504F5254004B455942002B
:10132000524D503200524D50310056494252004CFD
:10133000464F32004C464F3100454E563300454E25
:10134000563200454E5631002D2D2D2D0050643162
:10135000004C7632004F4646004E4F490052414EF7
:1013600000535152004453570055535700545249AB
:1013700000506431004C7632004F46460047392019
:1013800020004623392000463920200045392020FE
:101390000044233920004439202000432339200011
:1013A00043392020004238202000412338200041CA
:1013B00038202000472338200047382020004623CB
:1013C00038200046382020004538202000442338AB
:1013D00020004438202000432338200043382020B8
:1013E00000423720200041233720004137202000D1
:1013F0004723372000473720200046233720004668
:101400003720200045372020004423372000443770
:10141000202000432337200043372020004236207D
:10142000200041233620004136202000472336206B
:101430000047362020004623362000463620200074
:101440004536202000442336200044362020004327
:10145000233620004336202000423520200041233F
:101460003520004135202000472335200047352016
:101470002000462335200046352020004535202019
:10148000004423352000443520200043233520002C
:1014900043352020004234202000412334200041E5
:1014A00034202000472334200047342020004623E6
:1014B00034200046342020004534202000442334CA
:1014C00020004434202000432334200043342020D3
:1014D00000423320200041233320004133202000EC
:1014E0004723332000473320200046233320004683
:1014F0003320200045332020004423332000443390
:101500002020004323332000433320200042322098
:101510002000412332200041322020004723322086
:10152000004732202000462332200046322020008F
:101530004532202000442332200044322020004342
:10154000233220004332202000423120200041235A
:101550003120004131202000472331200047312035
:101560002000462331200046312020004531202034
:101570000044233120004431202000432331200047
:101580004331202000423020200041233020004100
:101590003020200047233020004730202000462301
:1015A00030200046302020004530202000442330E9
:1015B00020004430202000432330200043302020EE
:1015C00000422D31200041232D3100412D312000DA
:1015D00047232D3100472D31200046232D31004671
:1015E0002D312000452D31200044232D3100442D84
:1015F00031200043232D3100432D312000202D2D9B
:1016000053595354454D205245424F4F542D2D2090
:10161000007265626F6F74696E67207379737465A9
:101620006D202F20736F6674776172655F526562FB
:101630006F6F74282920002000202D2D2D20544567
:101640005354204D4F4445202D2D2D20200054650E
:1016500073744D6F646528290019090809A1099060
:10166000097F096E095D094C093B092A09E509D47E
:1016700009C309B2095C0A4B0A3A0A290A180A077F
:101680000AF609202020002E002A0020005F0C4FBF
:101690000C3F0C2F0C1F0C0F0CFF0BEF0BDF0BCFB5
:1016A0000BBF0BAF0B9F0B8F0B7F0B6F0B5F0B4FAA
:1016B0000B3F0B2F0B1E0B0D0BFD0AED0ADD0ACDA8
:1016C0000ABD0AAD0A9D0A8D0A7D0A6D0A44756D30
:1016D00070696E67204D6173746572202E2E2E2006
:1016E000200044756D702042616E6B2066696E69E2
:1016F00073686564202000204420202000204320BF
:1017000020200020434F524500202042202000206E
:10171000412020200020746F0044756D70696E6751
:10172000203A00464F524D4154206578742E45456D
:1017300050524F4D20772F30002050617463682045
:101740003030302D39393920726561647920004399
:101750004F5245202041202020422020204320209D
:1017600020442020004563686F206D7367206F6EF2
:10177000204D696469204F75743A004563686F2095
:101780006D7367206F6E20434F5245204F75742054
:101790000048656C6C6F2042756464792021203AA2
:1017A000292020202020000000100020010111002D
:1017B000200202120020030313002004041400205E
:1017C000050515002006061600200707170020084B
:1017D0000803000309090C003F0A0A00003F0B0B35
:1017E00000003F0C0C0300030D0D0300030E0E0C54
:1017F000003F0F0F00003F101000003F11110300C9
:10180000031212030003131300003F14141F003FC0
:101810001515010003161600000117170100031823
:101820001800000119190000031A1A7F007F1B1B02
:1018300000003F1C1C0000031D1D0000031E1E00B5
:10184000003F1F1F3F003F202000003F21210000DC
:10185000032222000001232300003F242400000370
:1018600025250000012626000006272700001F2846
:101870002803001429291F003F2A2A00003F2B2B90
:101880000000032C2C0000012D2D0000062E2E0040
:1018900000202F2F03001430301F003F3131000093
:1018A00003323200003F333300003F34343F003F07
:1018B000353500003F36360A003F37373F003F38A6
:1018C0003800000139390000013A3A0000033B3B7F
:1018D00000003F3C3C00003F3D3D3F003F3E3E3F5F
:1018E000003F3F3F0A003F40403F003F4141000072
:1018F0000342420000034343000003444400003F0E
:10190000454500003F46463F003F474700003F48EF
:10191000480A003F49493F003F4A4A0000034B4BF9
:101920000000034C4C0400144D4D01003F4E4E0F7F
:10193000003F4F4F1E003F50502E003F51513F007F
:101940003F52521F003F5353000003545432003F94
:101950005555000003565600007F575700007F582A
:101960005800007F595900007F5A5A01007F5B5B85
:1019700000007F5C5C3F007F5D5D3F007F5E5E003E
:10198000007F5F5F00007F606000007F616100009A
:101990007F626200007F636300007F646400007FF9
:1019A000656500007F666600007F676700007F68EE
:1019B00068000014696900007F6A6A0000206B6B90
:1019C0000000146C6C00007F6D6D0000206E6E00D6
:1019D00000146F6F00007F707000002071710000B4
:1019E00014727200007F737300002074740000147E
:1019F000757500007F7676000020777700001478F8
:101A00007800007F79790000207A7A0000147B7BCF
:101A100000007F7C7C0000207D7D0000147E7E0025
:101A2000007F7F7F00002080800000148181000003
:101A30007F82820000208383000014848400007F62
:101A4000858500002063686F7264506F73697469E4
:101A50006F6E203D20005D203D200063686F726442
:101A600053697A655B002F76656C6F6369747920C2
:101A70003D200020002F7069746368203D20002005
:101A8000002F63686F7264506F736974696F6E20A2
:101A90003D20002000636D00726573657420666FE1
:101AA00072206E6578742074696D6520627920619A
:101AB000206E6F74654F6666206D7367202F6368B4
:101AC0006F7264506F736974696F6E203D20002FD0
:101AD00076656C6F63697479203D200020002F705B
:101AE00069746368203D200020002F63686F726472
:101AF000506F736974696F6E203D20002000636D24
:101B000000736F727465642063686F7264734D65EF
:101B10006D6F41727261795B5D202D3E2072617044
:101B2000706F7274206861726D6F6E697175652077
:101B30003A20002F76656C6F63697479203D200030
:101B400020002F7069746368203D200020002F63FF
:101B5000686F7264506F736974696F6E203D200006
:101B60002000636D00736F727465642063686F7228
:101B700064734D656D6F41727261795B5D203A20CF
:101B80000020002D2D2D2D2D2D2D2D2D2D2D2D2DEC
:101B90002D2DFF2D2D2D2D2D2D2D2D2D2D2D2D2DA3
:101BA0002DFF2D2D2D2D2D2D2D2D2D2D2D2D2D2D93
:101BB000FF2D2D2D2D2D2D2D2D2D2D2D2D2D2DFFB1
:101BC0002D2D2D2D2D2D2D2D2D2D2D2D2D2DFF2D73
:101BD0002D2D2D2D2D2D2D2D2D2D2D2D2DFF2D2D63
:101BE0002D2D2D2D2D2D2D2D2D2D2D2DFF2D2D2D53
:101BF0002D2D2D2D2D2D2D2D2D2D2DFF2D2D2D2D43
:101C00002D2D2D2D2D2D2D2D2D2DFF2D2D2D2D2D32
:101C10002D2D2D2D2D2D2D2D2DFF2D2D2D2D2D2D22
:101C20002D2D2D2D2D2D2D2DFF2D2D2D2D2D2D2D12
:101C30002D2D2D2D2D2D2DFF2D2D2D2D2D2D2D2D02
:101C40002D2D2D2D2D2DFF2D2D2D2D2D2D2D2D2DF2
:101C50002D2D2D2D2DFF2D2D2D2D2D2D2D2D2D2DE2
:101C60002D2D2D2DFF2D2D2D2D2D2D2D2D2D2D2DD2
:101C70002D2D2DFF2D2D2D2D2D2D2D2D2D2D2D2DC2
:101C80002D2D2D2D2D2D2D2D2D2D2DFF2D2D2D2DB2
:101C90002D2D2D2D2D2D2D2D2D2D2DFFFF2D2D2DD0
:101CA0002D2D2D2D2D2D2D2D2D2D2DFFFFFF2D2DEE
:101CB0002D2D2D2D2D2D2D2D2D2D2DFFFFFFFF2D0C
:101CC0002D2D2D2D2D2D2D2D2D2D2DFFFFFFFFFF2A
:101CD0002D2D2D2D2D2D2D2D2D2D2DFFFFFFFFFF1A
:101CE000FF2D2D2D2D2D2D2D2D2D2DFFFFFFFFFF38
:101CF000FFFF2D2D2D2D2D2D2D2D2DFFFFFFFFFF56
:101D0000FFFFFFFFFFFFFFFFFFFFFF2D2D2D2D2DFD
:101D10002D2D2D2DFFFFFFFFFFFFFF2D2D2D2D2D35
:101D20002D2D2D2D2DFFFFFFFFFFFF2D2D2D2D2DF7
:101D30002D2D2D2D2D2DFFFFFFFFFF2D2D2D2D2DB9
:101D40002D2D2D2D2D2D2DFFFFFFFF2D2D2D2D2D7B
:101D50002D2D2D2D2D2D2D2DFFFFFF2D2D2D2D2D3D
:101D60002D2D2D2D2D2D2D2D2DFFFF2D2D2D2D2DFF
:101D70002D2D2D2D2D2D2D2D2D2DFF2D2D2D2D2DC1
:101D80002D2D2D2D2D2D2D2D2D2D2D2D2D2D2D2D83
:101D90002D2D2DFF2D2D2D2D2D2D2D2D2D2D2D2DA1
:101DA0002D2D2DFFFF2D2D2D2D2D2D2D2D2D2D2DBF
:101DB0002D2D2DFFFFFF2D2D2D2D2D2D2D2D2D2DDD
:101DC0002D2D2DFFFFFFFF2D2D2D2D2D2D2D2D2DFB
:101DD0002D2D2DFFFFFFFFFF2D2D2D2D2D2D2D2D19
:101DE0002D2D2DFFFFFFFFFFFF2D2D2D2D2D2D2D37
:101DF0002D2D2DFFFFFFFFFFFFFF2D2D2D2D2D2D55
:101E00002D2D2DFFFFFFFFFFFFFFFF2D2D2D2D2D72
:101E10002D2D2DFFFFFFFFFFFFFFFFFF2D2D2D2D90
:101E20002D2D2DFFFFFFFFFFFFFFFFFFFF2D2D2DAE
:101E30002D2D2DFFFFFFFFFFFFFFFFFFFFFF2D2DCC
:101E40002D2D2DFFFFFFFFFFFFFFFFFFFFFFFF2DEA
:101E50002D2D2DFFFFFFFFFFFFFFFFFFFFFFFFFF08
:101E60002D2D2DFFFFFFFFFFFFFFFFFFFFFFFFFFF8
:101E7000FF2D2DFFFFFFFFFFFFFFFFFFFFFFFFFF16
:101E8000FFFF2D9E108D107C106B105A10491038DA
:101E900010271016100510F40FE30FD20FC10FB06A
:101EA0000F9F0F8E0F7D0F6C0F5B0F4A0F390F289E
:101EB0000F170F060FF50EE40ED30EC20EB10EA0D3
:101EC0000E8F0E7E0E6D0E5C0E4B0E3A0E290E1806
:101ED0000E070EF60DE50DD40DC30DB20DA10D903C
:101EE0000D7F0D6E0D5D0D4C0D3B0D2A0D190D086E
:101EF0000DF70CE60CD50CC40CB30CA20C910C80A5
:101F00000C6F0C696E742E454550524F4D20616424
:101F100064722000434C454152494E472057495472
:101F200048204E554C4C20202000696E742E4545AB
:101F300050524F4D20616464722000003000000058
:101F400000013F0000000001010000000440010208
:101F5000000000000000000000000000000000FF82
:101F6000FFFFFFFFFFFFFFFFFFFFFFFFFFFFFFFF81
:101F7000FFFFFFFFFFFFFFFFFFFFFFFFFFFFFFFF71
:101F8000FFFFFFFFFFFFFFFFFFFFFFFFFFFFFFFF61
:101F9000FFFFFFFFFFFFFFFFFFFFFFFFFFFFFFFF51
:101FA000FFFFFFFFFFFFFFFFFFFFFFFFFFFFFFFF41
:101FB000FFFFFFFFFFFFFFFFFFFFFFFFFFFFFFFF31
:101FC000FFFFFFFFFFFFFFFFFFFFFFFFFFFFFFFF21
:101FD000FFFFFFFFFFFFFFFFFFFFFFFFFF00000C02
:101FE0000001000000000044656661756C74204DBE
:101FF0004153544552535B5D20202000696E742E7E
:10200000454550524F4D20616464722000434C4559
:102010004152494E472057495448204E554C4C2078
:10202000202000696E742E454550524F4D2061644A
:1020300064722000010000000001000101000000A6
:102040000001000200030100057F010200057F027C
:102050000300057F030400057F0400010100000068
:1020600000000044656661756C7420535953434FFA
:102070004E4649475B5D20006578742E45455052B9
:102080004F4D20706167652000494E495449414CCD
:1020900049534520552641525026534551006578F5
:1020A000742E454550524F4D2070616765200049A0
:1020B0004E495449414C49534520544F4E452020E8
:1020C0002020202000696E742E454550524F4D202F
:1020D000616464722000434C454152494E47205789
:1020E0004954482030786666202020006578742E98
:1020F000454550524F4D20706167652000434C4567
:102100004152494E4720574954482030786666204E
:10211000202000436865636B5F45787445455052E5
:102120004F4D5F466F726D61742829202F206D69B5
:1021300073736D61746368202100436865636B5F2E
:10214000457874454550524F4D5F466F726D6174CE
:102150002829202F206D617463682021006D656D32
:102160005F32202F20006D656D5F30202F20004EE4
:102170006F7465204F6666002F6368616E6E656CD4
:10218000203D200020002F76656C6F203D20002030
:10219000002F7069746368203D200020006E6F740A
:1021A000654F6666206E627200706C6179656420AE
:1021B0006E6F74654F6666203A20002F6368616E0B
:1021C0006E656C203D200020002F76656C6F203DF1
:1021D000200020002F7069746368203D20002000DB
:1021E0006E6F74654F6E20206E627200706C617944
:1021F0006564206E6F74654F6E203A20004E6F74D8
:1022000065204F6E0053797374656D207265636548
:102210006976656420202020004D6173746572200A
:10222000726563656976656420202020200045641E
:102230006974427566666572207265636569766564
:102240006420005061746368207265636569766517
:1022500064203A200042616E6B2072656365697686
:10226000656420212020202000524D50204D4F44F5
:10227000204D545258202D2D2D202D2D2D00524112
:102280004E444F4D495A453A2020202020202020FE
:1022900020200044434F20464C5420454E562020D9
:1022A0004B4244204C464F0052414E444F4D495AF8
:1022B000453A20202020202020202020002020001F
:1022C000444F0030004D61747269785F736C6F74B5
:1022D00020004578706F72742063757272656E7439
:1022E00070617463683A0020003000536574206E9A
:1022F000616D6520772F20656E636F6465723A00AB
:102300004C464F2056434120454E56205052544192
:1023100020524D500044434F20464C5420454E56C9
:10232000204B4244204D54525800204F4E004F46FF
:102330004600BB10B710B310AF104C464F204D44B1
:10234000452053524345204C4147205254470053A7
:10235000504400414D50204B424400414D502050CC
:102360005253004C464F20524D5032004C464F20A5
:10237000524D5031004F4E20004F4E20004F4E2006
:10238000004F4E2000312020204F4646204F464629
:10239000204F4646202020202000312020204F467C
:1023A00046204F4646204F464620204F4646004492
:1023B000434F20424E442056494220504F52542011
:1023C0002020200044434F20424E442056494220C2
:1023D000504F5254204B4244004F4E20004F46462F
:1023E0000053454E4420535953455820200053452F
:1023F0004E442043434F4E54524C0046494C5445A2
:1024000052204652455120205355535441494E00C5
:102410002020202000736E640056434120414D541B
:102420002056454C3020454E5632004F4E20004F2E
:102430004E20004F4E20004F4E20004F4646204F6A
:102440004646204F464620204F464620202020006A
:10245000424E44205649422050525441204B42445F
:102460002020202000CE10C910C410BF102011154C
:10247000110A11FF10F410E910DE10D310454E566A
:1024800020545249474745524D4F444520204C4621
:102490004F0046113D1134112B11454E5620444C2E
:1024A0005920414D502052454C2D4D4F444500453B
:1024B00056332041544B204445432020535553204C
:1024C00052454C004F4E20004F4646006A116111A4
:1024D00058114F114B4559422D4D4F444520554EF3
:1024E000492E4C454741544F00911187117D11737E
:1024F00011504F5254414D4F4445202056454C4FAA
:10250000205241544500545241434B47454E2D49BA
:102510004E5055543A20007C00B311AB11A3119BCF
:1025200011524D5020535044205452474D4F444572
:102530007C5447494E00DB12D212C912C012B712A6
:10254000AE12A5129C1293128A12811278126F1287
:1025500066125D1254124B124212391230122712B7
:102560001E1215120C120312FA11F111E811DF11EB
:10257000D611CD11C411BB11481343133E133913A7
:1025800034132F132A13251320131B13161311139F
:102590000C1307130213FD12F812F312EE12E912D4
:1025A000E4124253205352432020444553542020E8
:1025B0002020414D4E54004E4F5200494E5600458A
:1025C000787420496E7420496E69742053797320A1
:1025D00000464F524D415420454550524F4D203AF0
:1025E0002020454E4300537973204D737420416C75
:1025F0006C0042616E6B0044554D50204354524C68
:1026000052204D454D4F5259203A20006E6F6E6555
:10261000003244756F0051756172005472696F0029
:1026200044756F2000536F6C6F00434647203A207B
:1026300047526F755020287061676520342900204B
:102640002E2000202A20006F6666006F6E2000207A
:102650002E2000202A2000554B4E006D5467005458
:10266000726700733234004D696400494E54004370
:102670004C4B205A4F4E204C4F4320204A5452205E
:1026800058434300443A52616E67652020724348C4
:10269000207443482054727000433A52616E67655B
:1026A0002020724348207443482054727000423AFC
:1026B00052616E676520207243482074434820545D
:1026C000727000413A52616E676520207243482063
:1026D0007443482054727000202E2000202A2000CD
:1026E0005064312050643220204C7631204C7632B8
:1026F00020456E61004D314B004D3620004D314B71
:10270000004D3620004D314B004D3620004D314BF1
:10271000004D36200043482020413A2020423A20F4
:102720002020433A2020443A2000536E6400551381
:1027300051134D13414D50204D4F4420414D4E54A7
:1027400020424E442047424C00476574006D136997
:1027500013651361135D13591379137513711353B3
:102760005044204D4F4420414D4E54205741562057
:1027700047424C00564942204D4944204D4953435D
:102780002047525020444D5000434F4E4649475534
:1027900052453A20202020202020202020004F4297
:1027A00045524845494D030C000003030C0000034B
:1027B00003001F01000100007F000000003F000037
:1027C000000000000000031F0000000000031F00C5
:1027D00000003F000A3F00000000003F3F0A3F00AA
:1027E000000000003F000A3F000004010F1E2E3FC2
:1027F0001F0032000000000001003F3F0000000009
:1028000000000000000000000000000000000000C8
:1028100000000000000000000000000000000000B8
:10282000000000003C643C803B643B80396439809C
:102830003764378035643580346434803264328064
:10284000306400003064308032643280346434801C
:102850003564358037643780396439803B643B8028
:102860003C640000306430803264328034643480F0
:102870003564358037643780396439803B643B8008
:102880003C6400003C643C803B643B80396439809C
:102890003764378035643580346434803264328004
:1028A00030640000305029502950305029502950B0
:1028B000315029503050295029503050295029503A
:1028C000315029502E50275027502E502750275036
:1028D0002F5027502E50275027502E50275027502A
:1028E0002F50275043353C803E323C8041273C806E
:1028F000432D3C8041313C803E333C803C373C8022
:102900003E323C8043353C803E323C8041273C8017
:10291000432D3C8041313C803E333C803C373C8001
:102920003E323C803C683C803E523E804156418075
:10293000436843803E6800000000324A0000000007
:1029400000003E4A3C683C803E523E8041564180F9
:10295000436843803E6800000000324A00000000E7
:1029600000003E4A3039303430363037373E373E5B
:102970003A363A373039303430363037373E373EF2
:102980003A363A3735393534353635373C3E3C3EC4
:102990003F363F3737393734373637373E3E3E3E9E
:1029A000413641373741373B3531352A37333732B6
:1029B00035353536373937403543372E000000007E
:1029C000000000003A2E3A29373B37393A370000E9
:1029D000000000003C293C2E3A223A273C430000EC
:1029E000000000002450245024612450245024501E
:1029F00030613050245024502450245030503061E5
:102A000030503050245024502461245024502450FD
:102A100030613050245024502450245030503061C4
:102A200030503050000000000000000000000000A6
:102A30000000000000000000000000000000000096
:102A40000000000000000000000000000000000086
:102A50000000000000000000000000000000000076
:102A60000000000000000000000000000000000066
:102A70000000000000000000000000000000000056
:102A80000000000000000000000000000000000046
:102A90000000000000000000000000000000000036
:102AA0000000000041727020262053657120736180
:102AB0007665642021202020004564697442756693
:102AC0006665722C20556E69736F6E2C2000506104
:102AD0007463682073746F72656420696E204D6141
:102AE00074727800347832344C4335313220696E58
:102AF0006974696C696173656400696E7465726E8E
:102B000020454550524F4D20636C656172656400ED
:102B1000616C6C2032344C4335313220636C65611A
:102B200072656420200063757272656E7443686F0D
:102B3000726473203D200066617578007672616969
:102B4000006C6561726E696E6743686F7264203DE8
:102B50002000202E2000202A2000206F2000202E80
:102B60002000202A2000206F2000202E2000202A74
:102B70002000206F200052656320202020202000AC
:102B800043484F524453202020636D3120636D32FF
:102B900020636D33002000200020002000412F53CF
:102BA0002000532F4120005345542053504C5420B3
:102BB000547241205472532053455100202E20005E
:102BC000202A200020004E6F20200059657320002D
:102BD000202E202000202A2020002D2D2D20006DC9
:102BE00054672000547267200073323420004D690E
:102BF00064200042504D20414354205448525520F7
:102C000047525620484C440020202020002000F845
:102C100015F315EE15E915E415DF15DA15D515D000
:102C200015CB15C615C115BC15B715B215AD15A830
:102C300015A3159E15991594158F158A1585158060
:102C4000157B15761571156C15671562155D155890
:102C50001553154E15491544153F153A15351530C0
:102C6000152B15261521151C15171512150D1508F0
:102C7000150315FE14F914F414EF14EA14E514E026
:102C800014DB14D614D114CC14C714C214BD14B858
:102C900014B314AE14A914A4149F149A1495149088
:102CA000148B14861481147C14771472146D1468B8
:102CB0001463145E14591454144F144A14451440E8
:102CC000143B14361431142C14271422141D141818
:102CD0001413140E1409140414FF13FA13F513F04B
:102CE00013EB13E613E113DC13D713D213CD13C880
:102CF00013C313BE13B913B413AF13AA13A513A0B0
:102D0000139B13961391138C13871382137D135403
:102D10006965202000526573742000456E640020B0
:102D2000202000202E202000746F676C00202E20B1
:102D30002000206F202000200031362F3100382F56
:102D4000312000342F312000322F312000312F313B
:102D50002000332F322000312F322000312F33203A
:102D600000312F342000312F36200074726720008C
:102D70005350442052454320504C415920522F5427
:102D800020537450007800324D657300314D6573E7
:102D900000332F312000322F312000332F3220001A
:102DA000312F312000312F322000312F33200031DC
:102DB0002F342000312F362000312F382000312FC2
:102DC0003132007472672000313C3C3300446E5550
:102DD0007000426E634400313E3E330052616E64C7
:102DE000005570446E00426E636500446F776E005C
:102DF00020557020004F726472005459502044498D
:102E000056204D4C545020474154203876610020C4
:102E10005379732026204D61737465727320726537
:102E20006164792000205061746368203030302D57
:102E30003939392072656164792000496E742E45F4
:102E40004550524F4D20666F726D617474656420F9
:102E5000004578742E454550524F4D20666F726D77
:102E60006174746564200050415443482070616768
:102E70006535004370797C5073743E20456474203E
:102E80004172702053657100434F505920262050E5
:102E900041535445203A2020202020200053415601
:102EA0004500300030006D00200047657474696E85
:102EB00067204D5452582042616E6B2000474554A4
:102EC00020002042616E6B006D42616E6B3A0047DC
:102ED000455420494E4954204F52472045445420E0
:102EE00053415600200020003000300044004300D1
:102EF0004200410050415443482020000000067821
:102F000014E60000010000010000010100013B0186
:102F10007E03000603000602000A000005050160AA
:102F200001010403015F0000030000010000010033
:102F3000000103012F000020000000040E1F00000C
:102F40000000001F0E04000002030302020E1E0C0C
:102F50001E1E1E1F1E1E1E1E1C1C1C1F1C1C1C1C9D
:102F60001818181F181818181010101F101010100B
:102F700010181C1E1E1C18104D61747269782043B5
:102F800074726C722000414C504553204D414348AF
:102F9000494E455320323031372000436865636B1A
:102FA0005F496E74454550524F4D5F466F726D617B
:102FB0007428292F206D6973736D617463682021F3
:102FC00000436865636B5F496E74454550524F4DD1
:102FD0005F466F726D617428292F206D617463687C
:102FE0002021000100057F010200057F020300058A
:102FF0007F030400057F04456E64206F6620426FE6
:103000006F742E002D2D20616C6C206E6F746573B3
:10301000206F6666202D2D00726563616C6C2073D5
:10302000696C656E74206E6F7465730072656361A0
:103030006C6C20706174636820636F6E66696720D2
:1030400000726563616C6C20706174636820636FEB
:103050006E66696700726563616C6C207379737466
:10306000656D20636F6E66696700726563616C6C85
:103070002073797374656D20636F6E666967002DC8
:103080002D2D20426F6F74202053797374656D204D
:103090002D2D2D00426F6F74282920004D61747210
:1030A0006978204374726C7220760000002100243D
:1030B0000027002A002D0030003300010100000429
:1030C0000107010A0100000A0B02090C0D0E080796
:1030D00003040100000000000000000000000000E8
:1030E00000000000000000000000000000000000E0
:1030F000001211100000000000000000000000009D
:103100000000000000000000000000000022002578
:103110000028002B002E00310034000201000005C1
:103120000108010B0144756D70696E672053797356
:1031300074656D436F6E6669670001021020200898
:103140000810204010204080020102010804020102
:103150000102040810204080804020100804020171
:1031600080040201804020100804020108040201CA
:103170000102040810204080010204081020408051
:10318000000020002300260029002C002F00320020
:1031900000010000030106010901050505050705F9
:1031A00008080808020202020A0A080804040404C3
:1031B00001010101010101010303030303030303EF
:1031C000040707070C0C0C0C0C0C0C0C020202027E
:1031D00006060606060606060B0B0B0B0B0B0B0B67
:1031E000F29BD99B11241FBECFEFD1E2DEBFCDBF32
:1031F00000E00CBF14E0A0E0B2E0E2E0F0E601E0A5
:103200000BBF02C007900D92AC3CB107D9F728E183
:10321000ACECB4E001C01D92A932B207E1F718E1AD
:10322000C1EFD8E100E006C021970109802FFE011F
:103230000E94D3ADC03FD10780E00807A9F70E94E4
:1032400045A10C94EFAF0C940000FC0190819923F0
:10325000E1F0961730F096131CC08091AF0B87FFFA
:1032600018C02091AF0B920F908380918E0981112D
:1032700003C081E080938E0980918E098F3F19F4FD
:103280008EEF80938E0981E008958091AF0B81309D
:1032900041F380E00895FC0180819FEF980F9E33F9
:1032A00020F49091AF0B890F0CC081110CC090914C
:1032B000AF0B913019F4908381E008959F3F59F44A
:1032C0008FE78083F9CF8F3331F49091AF0B9F3F1D
:1032D00011F48EE3F6CF9EEB980F9D3310F38F37EA
:1032E00041F48091AF0B813011F410820895815820
:1032F000E8CF813431F48091AF0B813021F482E446
:10330000E0CF87FDCECF80E00895FC019081992326
:1033100071F0961730F096130EC08091AF0B87FFB7
:103320000AC02091AF0B920F908381E008958091A5
:10333000AF0B8130B1F380E008959091F80B9923A1
:10334000B1F03091FA0B341312C01092FB0B909134
:10335000EB0541E094279093EB051092A60680932D
:10336000ED056093EE053093EF052093F005089589
:1033700081E08093AB0A089581E08093AB0A80914D
:103380008C0B813019F48FEF8093F30A0895982FF6
:10339000EBEFE80FE23708F07AC0F0E08827EC5254
:1033A000F64E8F4F0C94D3AD751A471A471A5D1A13
:1033B000461A491A4B1A4D1A4F1A511A531A551ACE
:1033C000571A591A5B1A971A991A9B1A9D1A9F1A1B
:1033D000A11AA31AA51AA71AA91AAB1A471A471AAB
:1033E0008F1A911A931A951A771ADB1ADD1ADF1AB7
:1033F000AD1AAF1AB11AB31AB51AB71AB91ABB1A5D
:10340000BD1ABF1AC11AC31AC51AC71AC91ACB1ACC
:10341000CD1ACF1AD11AD31AD51AD71AD91A471AD0
:10342000791A471A471A471A471AE11AE31AE51A8E
:10343000E71AE91AEB1AED1AEF1AF11AF31A611AE0
:10344000651A7F1A8D1AF51AF71AF91AFB1AFD1A5E
:10345000FF1A011B031B471A471A051B071B471AB4
:10346000471A471A471A471A471A5F1A631A671A00
:10347000691A6B1A6D1A6F1A711A731A7B1A7D1AF0
:10348000811A831A851A871A891A8B1A90E0892F54
:10349000089595E0FCCF93E0FACF97E0F8CF96E05F
:1034A000F6CF9AE0F4CF9FE0F2CF9DE0F0CF91E12C
:1034B000EECF90E1ECCF9CE0EACF94E1E8CF98E04A
:1034C000E6CF99E0E4CF92E1E2CF93E1E0CF92E062
:1034D000DECF95E1DCCF98E1DACF99E1D8CF9AE160
:1034E000D6CF9EE1D4CF9BE1D2CF9CE2D0CF9EE25B
:1034F000CECF9FE2CCCF90E5CACF96E5C8CF97E577
:10350000C6CF92E5C4CF93E5C2CF98E5C0CF94E58E
:10351000BECF9AE5BCCF90E6BACF91E6B8CF9CE596
:10352000B6CF9DE5B4CF92E6B2CF9EE5B0CF99E39A
:10353000AECF92E3ACCF93E3AACF94E3A8CF95E3C9
:10354000A6CF96E3A4CF97E3A2CF9BE3A0CF9AE3C5
:103550009ECF93E49CCF9CE39ACF9DE398CF9EE3CC
:1035600096CF9FE394CF90E492CF91E490CF95E4EF
:103570008ECF94E48CCF9DE48ACF96E488CF97E4F5
:1035800086CF98E484CF99E482CF9AE480CF9BE4FD
:103590007ECF9FE47CCF9EE47ACF91E278CF92E217
:1035A00076CF93E274CF94E272CF95E270CF96E239
:1035B0006ECF98E26CCF99E26ACF9AE268CF9BE235
:1035C00066CF91E064CF94E062CF9BE060CF9EE055
:1035D0005ECF96E15CCF97E15ACF9CE158CF9DE159
:1035E00056CF98E354CF92E452CF9CE450CF95E568
:1035F0004ECF9FE54CCF9DE24ACF9FE148CF90E26E
:1036000046CF91E544CF9BE542CF93E640CF90E390
:103610003ECF0895813091F028F08230A1F08330C0
:10362000D1F0089588E00E94B99B8BE00E94BC9B7A
:1036300089E00E94BC9B8AE00C94BC9B8BE00E94BA
:10364000B99B88E0F3CF89E00E94B99B88E00E9493
:10365000BC9B8BE0EECF8AE00E94B99B88E00E9481
:10366000BC9B8BE00E94BC9B89E0E6CF81E080930D
:10367000AB0A80918C0B813039F488E18093F30A96
:1036800060E086E10C94BF9B08958091EA05882351
:1036900021F0809127028111C2C08091AB0A88235A
:1036A00009F4F0C061E08DE00E94BF9B1092AB0A6C
:1036B0008091A90661E0811105C08091DA0C86FF36
:1036C00004C060E08EE10E94BF9B8091780B61E0B6
:1036D00081110AC08091DA0C90E0880F892F881F31
:1036E000990B813021F460E08FE10E94BF9B8091B3
:1036F000CF048131A8F1E0918B0B86E8E89FF001BF
:103700001124E15AF84F82898430A8F06091D70CD7
:10371000661F6627661F81E0682787E00E94BF9BBF
:103720006091D70C6295669566956370609561703F
:1037300086E00E94BF9B8091F80B811104C08091AC
:10374000A60B882359F06091D90C62956695669511
:1037500063706095617086E10E94BF9B1092CF04F8
:103760008091CF048F5F8093CF04E0918B0B96E81C
:10377000E99FF0011124E15AF84F218D3091CE04D8
:10378000822F8250990BAC0180E190E002C09595A8
:1037900087954A95E2F73817190671F06CF02230D8
:1037A00048F06091D70C62956F706095617084E00D
:1037B0000E94BF9B1092CE048091CE048F5F8093B5
:1037C000CE049091CD0480918E09891718F56091EF
:1037D000CC0481E068276093CC048091A60B8823F9
:1037E00009F459C080919509811101C061E083E01D
:1037F0000E94BF9B8091F80B60E0882331F080919C
:103800008A0961E081116091CC048DE10E94BF9B27
:103810001092CD048091CD048F5F8093CD04809170
:10382000EA05882321F08091270281114EC0809102
:10383000D104E0918B0B96E8E99FF0011124E15A45
:10384000F84F93A12EE330E0291B310982171306AC
:1038500024F58F5F8093D1048091D004E0918B0B8D
:1038600096E8E99FF0011124E15AF84F92A52EE362
:1038700030E0291B310982171306DCF48F5F809337
:10388000D00408958091D80C85FF12CF60E08DE0C0
:103890000E94BF9B0DCF60E0AACF6091DA0C6695C5
:1038A0006695609561708AE10E94BF9B1092D10479
:1038B000D3CF6091DA0C66956695669560956170D8
:1038C0008BE10E94BF9B1092D0040895CF92DF92AB
:1038D000EF92FF920F931F93CF93DF938DEAE82E21
:1038E0008AE0F82E10E000E0D0E0C0E0680182E15C
:1038F000C80ED11CF701EC0FFD1F6081C6018C0FB3
:103900009D1F0E9499972196C530D10599F785E0B2
:10391000E80EF11C0B5F1F4F0431110529F7609170
:10392000AC0A86E290E0DF91CF911F910F91FF905A
:10393000EF90DF90CF900C9499970F931F93CF93B4
:10394000DF930FEA16E0C4EFD1E0F80161918F0137
:10395000CE010E9499972196C03AF2E0DF07A9F7BD
:10396000DF91CF911F910F9108950F931F93CF93E4
:10397000DF93CDB7DEB7CF58D1090FB6F894DEBFCD
:103980000FBECDBF90EF998390E19A8396E09B8321
:1039900099E09C836D83ACE3BCE0FE01319690E03E
:1039A0002D91322F3F703583322F32953F70368301
:1039B000920F32962CE0A035B20791F70CEF1BE086
:1039C00061E070E06C0F7D1F605C7F4FFE013196FF
:1039D0009801D9014C91542F5F7055A7542F5295DF
:1039E0005F7056A7940F2E5F3F4F3296E617F7078A
:1039F00081F7FE01E25BFF4F41E050E04C0F5D1F9D
:103A000043575F4FD80111962C91322F3F7030836E
:103A1000322F32953F703183920F0E5F1F4F3296D7
:103A20004E175F0779F79F77C257DF4F9883CE58BD
:103A3000D04097EFC157DF4F9883CF58D0408330A5
:103A400079F180F48130D1F0823011F1C157DF4F2C
:103A50000FB6F894DEBF0FBECDBFDF91CF911F919F
:103A60000F910895843069F1853081F7BE016F5F51
:103A70007F4F8FE890E00E949286E8CFAE014F5FC3
:103A80005F4F6FE870E084E891E10E94EC86DECF42
:103A9000BE016F5F7F4F8FE890E00E94CE86D6CF49
:103AA00010918C0B81E080938C0BAE014F5F5F4FC8
:103AB0006FE870E08EE193E10E94EC8610938C0B2E
:103AC000C5CFBE016F5F7F4F8FE890E00E94B08648
:103AD000BDCF1F93CF93DF93CDB7DEB7C351D14096
:103AE0000FB6F894DEBF0FBECDBF90EF998390E183
:103AF0009A8396E09B8391E09C836D83A1E5BCE073
:103B0000FE01319690E0BF012D91322F3F70358339
:103B1000322F32953F703683920F32962CE0A73DBC
:103B2000B20791F79F77CE5EDE4F9883C251D140A6
:103B300097EFCD5EDE4F9883C351D140833031F192
:103B400078F48130B1F08230E1F0CD5EDE4F0FB617
:103B5000F894DEBF0FBECDBFDF91CF911F910895C6
:103B6000843019F1853089F783E191E00E949286D3
:103B7000ECCFAB0163E171E084E891E10E94EC8657
:103B8000E4CF83E191E00E94CE86DFCF10918C0BD1
:103B900081E080938C0BAB0163E171E08EE193E1F6
:103BA0000E94EC8610938C0BD0CF83E191E00E94B1
:103BB000B086CBCF1F93CF93DF93CDB7DEB7C35182
:103BC000D1400FB6F894DEBF0FBECDBF90917B0BF6
:103BD0009923D9F190EF998390E19A8396E09B83A2
:103BE00091E09C831D82A1E5BCE0FE01319690E04E
:103BF000BF012D91322F3F703583322F32953F70A8
:103C00003683920F32962CE0A73DB20791F79F774B
:103C1000CE5EDE4F9883C251D14097EFCD5EDE4F2E
:103C20009883C351D140833071F1B8F48130F1F001
:103C3000823021F1CD5EDE4F0FB6F894DEBF0FBEAD
:103C4000CDBFDF91CF911F91089590EF998390E1BF
:103C50009A8396E09B839DE0C4CF843019F1853030
:103C600049F783E191E00E949286E4CFAB0163E1E2
:103C700071E084E891E10E94EC86DCCF83E191E081
:103C80000E94CE86D7CF10918C0B81E080938C0B55
:103C9000AB0163E171E08EE193E10E94EC86109349
:103CA0008C0BC8CF83E191E00E94B086C3CF1F93F5
:103CB000CF93DF9300D000D0CDB7DEB790EF9983DC
:103CC00090E19A8396E09B839AE09C8397EF9E8392
:103CD0006D83833069F170F48130C1F0823001F17D
:103CE00026960FB6F894DEBF0FBECDBFDF91CF9101
:103CF0001F910895843069F1853091F7BE016F5F9F
:103D00007F4F86E090E00E949286EACFAE014F5F3F
:103D10005F4F66E070E084E891E10E94EC86E0CFBE
:103D2000BE016F5F7F4F86E090E00E94CE86D8CFC5
:103D300010918C0B81E080938C0BAE014F5F5F4F35
:103D400066E070E08EE193E10E94EC8610938C0BAC
:103D5000C7CFBE016F5F7F4F86E090E00E94B086C4
:103D6000BFCF823089F018F4813031F0089584306B
:103D700089F08530A9F0089540E052E065E070E0F8
:103D800084E891E10C94EC8660E072E085E090E0DC
:103D90000C94CE8660E072E085E090E00C94B086F2
:103DA00060E072E085E090E00C9492861F93CF93E0
:103DB000DF9300D000D01F92CDB7DEB790EF99838C
:103DC00090E19A8396E09B8394E09C8391E09D83AD
:103DD00027EF2F836E83833069F170F48130C1F057
:103DE000823001F127960FB6F894DEBF0FBECDBF2B
:103DF000DF91CF911F910895843061F1853091F763
:103E0000BE016F5F7F4F87E090E00E949286EACF0D
:103E1000AE014F5F5F4F67E070E084E891E10E9480
:103E2000EC86E0CFBE016F5F7F4F87E090E00E949D
:103E3000CE86D8CF10918C0B90938C0BAE014F5F38
:103E40005F4F67E070E08EE193E10E94EC86109393
:103E50008C0BC8CFBE016F5F7F4F87E090E00E9460
:103E6000B086C0CF80918B0B811113C080919509D2
:103E700081110E94C99A109295091092A60B109276
:103E8000A70610928A091092A6061092FB0B1092B8
:103E9000F80B08956F927F928F929F92AF92BF928C
:103EA000CF92DF92EF92FF920F931F93CF93DF9306
:103EB000782E162FD42FC22F8091E505863010F072
:103EC0001092E5058091FA0B8D1332C1CC2309F4D1
:103ED0002FC101112DC1EC2EF12CC7018E53954F2E
:103EE0005C01FC016081FCE0CF9FD0011124A7544C
:103EF000B54F86E0C89F9001112490E026503048CD
:103F0000691791F19F5FF901E90FF11DEE0FFF1F96
:103F1000EB53F54F492F641302C01296F1CF8C91E9
:103F200050815817F0F485278C9311965C91119766
:103F30007181572711965C93119750818527808353
:103F4000518111967C911197572751835C91852758
:103F50008C9311968C9111975181852711968C9392
:103F600011974F5F3296D7CF85E69BE10E949190E3
:103F7000612C91E0E91AF10886E08E9D40018F9D49
:103F8000900C1124F5018081681608F049C062E6A2
:103F90007BE188E89DE00E946D906C2F88E89DE0B1
:103FA0000E94F98F60E67BE188E89DE00E946D90B9
:103FB0006EE47BE188E89DE00E946D90662D88E8C4
:103FC0009DE00E94F98F6CE47BE188E89DE00E940F
:103FD0006D9062E47BE188E89DE00E946D90640151
:103FE000C60CD11CCC0CDD1CC6018B53954F6C014B
:103FF000FC01608188E89DE00E94F98F60E47BE12C
:1040000088E89DE00E946D9063E37BE188E89DE095
:104010000E946D90F60181810E941D906394B2CF41
:104020009CE09E9DD0019F9DB00D1124AB53B54FD8
:104030002C919CE3921B99249394980E86E08E9D7C
:10404000F0018F9DF00D1124E90DF11DEE0FFF1F02
:10405000EB53F54F3297992039F080812C91821BD8
:10406000891B80839A94F6CF81E09BE10E94919016
:1040700086E08E9D60018F9DD00C1124F50180811A
:10408000981608F049C06EEF7AE188E89DE00E943A
:104090006D906C2F88E89DE00E94F98F6CEF7AE1BB
:1040A00088E89DE00E946D906AEE7AE188E89DE0E4
:1040B0000E946D90692D88E89DE00E94F98F68EE5E
:1040C0007AE188E89DE00E946D906EED7AE188E8E3
:1040D0009DE00E946D907601E90CF11CEE0CFF1C36
:1040E000C7018B53954F7C01FC01608188E89DE0FE
:1040F0000E94F98F6CED7AE188E89DE00E946D9056
:104100006FEC7AE188E89DE00E946D90F701818173
:104110000E941D909394B2CF1092E50568E97AE170
:1041200088E89DE00E946D908091E5050E941D90B9
:104130008091FA0B8D13A1C0CC2309F49EC00023FB
:1041400009F49BC0CC2ED12CC6010197E091E50566
:1041500026E0289F7001299FF00C1124EE0DFF2D01
:10416000F11DEE0FFF1FEB53F54F7082118365E9D0
:104170007AE188E89DE00E946D906C2F88E89DE0D0
:104180000E94F98F63E97AE188E89DE00E946D90D2
:1041900061E87AE188E89DE00E946D906091E50514
:1041A00088E89DE00E94F98F6FE77AE188E89DE05A
:1041B0000E946D9065E77AE188E89DE00E946D902D
:1041C000E091E505EE0DFF2DF11DEE0FFF1FEB5306
:1041D000F54F608188E89DE00E94F98F63E77AE1FE
:1041E00088E89DE00E946D9066E67AE188E89DE0AF
:1041F0000E946D90E091E505EE0DFF2DF11DEE0F93
:10420000FF1FEB53F54F81810E941D908091E505C2
:104210008F5F8093E50586010E53154FF80180836B
:104220006BE57AE188E89DE00E946D906C2F88E84C
:104230009DE00E94F98F66E57AE188E89DE00E94A2
:104240006D90F80180810E941D9065E47AE188E814
:104250009DE00E946D908091E505DF91CF911F91C7
:104260000F91FF90EF90DF90CF90BF90AF909F9015
:104270008F907F906F900C941D90DF91CF911F9144
:104280000F91FF90EF90DF90CF90BF90AF909F90F5
:104290008F907F906F900895CF93DF93C62FD0E0DB
:1042A000282F30E0853008F045C094E6899FC00D86
:1042B000D11D1124BE0181E29FE00E945F8AA9E521
:1042C000BCE0E8E0FDE081918D938DE0E638F807F1
:1042D000D1F7BE018EE09FE00E945F8AA1E5BCE0BD
:1042E000E8E0FDE081918D939DE0E031F907D1F7A1
:1042F0008091100D8093500CA1E1BDE0ECE3FCE057
:1043000080E59CE02D9121938E179F07D9F7E5E278
:10431000FDE0ACEFBBE081918C93878D11968C937F
:10432000119712968DE0E534F807A9F781E0DF9147
:10433000CF910895C901059724E6289FB001299FD0
:10434000700D1124C60FD71FBE018BEF9EE00E9497
:104350005F8AA9E5BCE0E8E0FDE081918D939DE0F6
:10436000E638F907D1F7BE0188EE9EE00E945F8A29
:10437000A1E5BCE0E8E0FDE081918D938DE0E031C6
:10438000F807D1F78091100D8093500CA1E1BDE0AA
:10439000ECE3FCE08D9181939CE0E035F907D1F7E7
:1043A000E5E2FDE0ACEFBBE081918C93878D119647
:1043B0008C93119712968DE0E534F807A9F7B6CFE4
:1043C000CF93C82F862F642F0E944C2121E53CE01B
:1043D00086E8C89FB001112490E080E0EC2FF0E067
:1043E000D9014D919D01DC01A60FB71FA15AB84F0D
:1043F0004C9301968638910599F78091500C803442
:1044000018F08FE38093500CEB57F94F8091500CCC
:104410008083ACE3BCE084E1C89FA001112490E05C
:1044200080E02D91FC01E40FF51FE856F64F208344
:10443000019684319105A9F7C11110C0ECEFFBE0A2
:10444000A7EBBBE080818C93818111968C931197AF
:10445000329612968CE0EC33F807A1F7CF910895CD
:104460005F926F927F928F929F92AF92BF92CF9204
:10447000DF92EF92FF920F931F93CF93DF9300D0C1
:1044800000D000D0CDB7DEB7182FD62EB42EC090F6
:104490008C0B81E080938C0B84E6689F7001112463
:1044A00000E080EFA82E90E1992E26E0822E38E0E1
:1044B000732E47EF642E61E08FE00E94BF9B402F78
:1044C0006D2D80E00E94E02160E08FE00E94BF9BA4
:1044D00041E060E088EB94E10E94169569E177E1A4
:1044E00088EB94E10E946D90C7010E946B9B65E18F
:1044F00077E188EB94E10E946D90133009F46FC06E
:1045000008F05EC0113009F467C069E077E112304D
:1045100009F45DC0BB2001F1602F812F0E94B51C02
:10452000A9829A828B827C820D838091500C982F75
:104530009F709E83982F92959F709F838F77888717
:104540006986133009F470C008F04FC0113009F4C7
:1045500059C0123009F460C0602F812F0E94691D7C
:104560000F5F8FEFE81AF80A043609F0A4CF41E094
:1045700060E088EB94E10E94169562EE76E188EBAC
:1045800094E10E946D9060E070E0CB010E94628D2A
:10459000C0928C0B29960FB6F894DEBF0FBECDBF2C
:1045A000DF91CF911F910F91FF90EF90DF90CF900F
:1045B000BF90AF909F908F907F906F905F90089585
:1045C000143081F067EF76E1153009F0A3CF88EB66
:1045D00094E10E946D909ECF6FE077E1F8CF63E0A9
:1045E00077E1F5CF6DEF76E1F2CF143071F1153050
:1045F00009F0B2CFBE016F5F7F4F89E090E00E946B
:104600009286AACFAE014F5F5F4F69E070E084E809
:1046100091E10E94EC86A0CFBE016F5F7F4F89E0E1
:1046200090E00E94CE8698CF50908C0B81E08093D2
:104630008C0BAE014F5F5F4F69E070E08EE193E15C
:104640000E94EC8650928C0B87CFBE016F5F7F4F2C
:1046500089E090E00E94B0867FCFCF93DF93962FC2
:10466000C1E5DCE026E8829FB001112430E020E0C3
:10467000E82FF0E0D901A60FB71FA15AB84F5C91FF
:1046800059932F5F3F4F26383105A1F7EB57F94F6C
:1046900020812093500CACE3BCE024E1829FB00168
:1046A000112430E020E0F901E60FF71FE856F64F3D
:1046B00050815D932F5F3F4F24313105A1F7811168
:1046C00010C0E7EBFBE0ACEFBBE080818C93818115
:1046D00011968C931197329612968BE0E73FF8076C
:1046E000A1F7642F892FDF91CF910C948A8CEF92E0
:1046F000FF920F931F93CF93DF93182FEB0181E06D
:104700008093AB0A8091FA0B811311C0AB01505E0C
:104710009A01220F232F221F330B31952F774F77CA
:10472000012F60EE70E084E891E10E94B698E12EDE
:10473000F12C8091FA0B90E00196E816F90679F4D5
:10474000BE01705EAB01440F452F441F550B5195C0
:104750004F776F77212F80EE90E00E942286809124
:10476000FA0B90E00296E816F90679F4BE01705E45
:10477000AB01440F452F441F550B51954F776F7771
:10478000212F80EE90E00E94DE858091FA0B90E070
:104790000396E816F906A9F4D05EAE01440F452F42
:1047A000441F550B51954F776C2F6F77212F80EE5B
:1047B00090E0DF91CF911F910F91FF90EF900C94BB
:1047C0009A85DF91CF911F910F91FF90EF900895FF
:1047D000EF92FF921F93CF93DF9391E09093AB0AF8
:1047E0009091AC0A9923B1F07B01182FCDEADAE061
:1047F0008881181304C0B7018C810E947723259605
:104800008AE0C13CD807A1F7DF91CF911F91FF90BB
:10481000EF900895DF91CF911F91FF90EF900C944E
:1048200077230F931F93CF93DF93C82FD62F81E069
:104830008093AB0A8091FA0B8C1309C00C2F20E0F7
:10484000462F60ED70E084E891E10E94B6980C2F4D
:1048500010E08091FA0B90E001960817190739F4DF
:104860002C2F40E06D2F80ED90E00E9422868091F9
:10487000FA0B90E002960817190739F42C2F40E044
:104880006D2F80ED90E00E94DE858091FA0B90E024
:1048900003960817190759F42C2F40E06D2F80ED6F
:1048A00090E0DF91CF911F910F910C949A85DF9149
:1048B000CF911F910F9108950F931F93CF93DF9383
:1048C00091E09093AB0A9091AC0A9923A9F0062F3E
:1048D000182FCDEADAE08881181304C0602F8C818C
:1048E0000E94112425968AE0C13CD807A1F7DF91E8
:1048F000CF911F910F910895DF91CF911F910F914B
:104900000C9411240F93833041F130F4813089F0FD
:104910008230D1F00F910895843059F18530D1F76C
:104920002091FA0B2D5F40E080EC90E00F910C9409
:104930009A850091FA0B20E0462F60EC70E084E845
:1049400091E10E94B698E6CF2091FA0B2F5F40E0EC
:1049500080EC90E00F910C9422860091FA0B8091EC
:104960008B0B080F20E0462F60EC70E08EE193E1A6
:10497000E8CF2091FA0B2E5F40E080EC90E00F91A1
:104980000C94DE85CF93DF93CFEAD6E084EF91E0FD
:104990000E94AF97899387E0CB35D807B9F7DF91AD
:1049A000CF91089589EA94E00C9400906AEF70E04A
:1049B00082E493E10E94F69683EB94E00E940090DB
:1049C0001092E70581E08093EE0A0895CF9381115C
:1049D00005C08EEB94E0CF910C941390C82F8032D9
:1049E00050F46BE288EB94E10E9430908C2F90E0C1
:1049F000CF910C94599B6DE288EB94E10E9430902A
:104A0000CF7180E290E08C1B9109F2CFCF9381119E
:104A100005C08EEB94E0CF910C941390C82F803496
:104A200050F46BE288EB94E10E9430908C2F90E080
:104A3000CF910C94599B6DE288EB94E10E943090E9
:104A4000CF7380E490E08C1B9109F2CFCF93DF937A
:104A5000D82FC62F41E060E088EB94E10E941695C4
:104A6000C230B9F090F4CC23A1F0C130B9F041E0EC
:104A700063E088EB94E10E94169561E87BE188EBA6
:104A800094E1DF91CF910C946D90C33059F0C43014
:104A900071F78D2F90E00E946B9BE9CF8D2F0E94C4
:104AA000E624E5CF8D2F0E940625E1CFCF93DF933B
:104AB000D82FC62F80E00E94889BC23071F048F446
:104AC000CC2359F0C13071F085EADF91CF910C947D
:104AD0004F9BC33059F0C430B9F78D2F90E00E943E
:104AE0006B9BF2CF8D2F0E94E624EECF8D2F0E947C
:104AF0000625EACF9091070D992309F4D2C0913091
:104B000059F48091E4058F5F8093E405861708F4DB
:104B1000C8C01092E40508958250883080F4E82FD0
:104B2000F0E08827E956FA4D8F4F0C94D3ADA725B6
:104B3000AD25CA25E125F025252640260C268091A5
:104B4000E4058F5F8093E405861718F70895809138
:104B5000E405811134C0615040C08091E40590911A
:104B6000E305992321F08F5F8093E40507C081114D
:104B70000FC081E08093E4058093E3058091E40514
:104B800068138FC062506093E4051092E3050895A6
:104B90008150EACF8091E4059091E305992349F093
:104BA0006150770B8617170681F38F5F8093E405BA
:104BB0000895811104C081E08093E3050895815038
:104BC000F5CF262F2150330B032E000C440B550B31
:104BD00060E070E0CB010E94148E6093E4050895BC
:104BE0009091E3058091E4059923A1F08E5F809375
:104BF000E40581E098279093E305E091E405F0E077
:104C0000EE0FFF1FED51FB4F808181114AC01092C2
:104C1000E405D1CF8150EBCF8091E405E82FF0E09F
:104C2000EE0FFF1FEB51FB4F9081992381F32091F1
:104C3000E30591E09227211106C08E5F8093E40581
:104C40009093E30508958150F9CF8091E405909108
:104C5000E305992359F091E0980F961718F4909373
:104C6000E405089581508093E4058FCF882309F4EB
:104C700072CF81508093E405882309F49CCF089576
:104C80008091E4059091E305992329F08F5F8617C1
:104C900008F07BCF8BCF81508093E405882309F403
:104CA0008ACF089581E196E10E94919062EC74E0D0
:104CB00088E89DE00E94968F68EC70E080E090E0CC
:104CC0000E94D58B0E94839B40E060E088EB94E1DA
:104CD0000E9416956DEF75E188EB94E10E946D904E
:104CE00088E19EE00FB6F894A895809360000FBE0F
:104CF00090936000FFCF0F931F93CF938C01C62F2B
:104D0000FC0183A161E0C0FF60E00E943987F801E7
:104D100084A161E0C1FF60E00E943987F80185A1AC
:104D200061E0C2FF60E00E943987F80186A161E07E
:104D3000C3FF60E0CF911F910F910C943987FC0164
:104D400087A18F3F71F190A59E3F51F4662331F00A
:104D500060E00E94208890E080E0089561E0F9CF53
:104D60002EEF280F2C3020F024ED280F233068F48C
:104D700070E0913019F40E945C88EDCF2FEF30E0A5
:104D8000A901461B570BBA01F6CF662331F09130CB
:104D900031F461E00E943987DECF9923D1F360E0DE
:104DA000F9CF8DEF9FEF08954F925F926F927F92B0
:104DB0008F929F92AF92BF92EF92FF921F93CF93E9
:104DC000DF93EC017B01142F88A161E091E0E916EB
:104DD000F10409F060E00E943987612F70E084E0FF
:104DE000759567958A95E1F7CE010E947B268C8C9C
:104DF0009D8CAE8CBF8C488C598C6A8C7B8C0E94AD
:104E00004A896419750986099709681579058A051B
:104E10009B05A8F361E08AA10E94398760E08AA11E
:104E20000E94398782E0E816F10469F0612F6F7003
:104E3000CE010E947B2661E08AA10E94398760E052
:104E40008AA10E94398790E080E0DF91CF911F9185
:104E5000FF90EF90BF90AF909F908F907F906F905A
:104E60005F904F9008958F929F92AF92BF92CF9292
:104E7000DF92EF92FF920F931F93CF93DF93FC018A
:104E800021A12F3F09F495C08B01EC01C48CD58C76
:104E9000E68CF78C808C918CA28CB38C0E944A8912
:104EA000681979098A099B096C157D058E059F058E
:104EB000A8F360E08BA10E94208860E08CA10E9492
:104EC000208860E08DA10E94208860E08EA10E9471
:104ED000208861E00130110509F060E088A10E949E
:104EE000398761E089A10E94398761E08AA10E9427
:104EF00039878BA10E94108710E1019709F010E01B
:104F00008CA10E941087019709F410628DA10E9464
:104F10001087019709F410648EA10E9410870197F1
:104F200009F4106860E08AA10E94398761E08AA1D3
:104F30000E9439878BA10E941087019709F41160A4
:104F40008CA10E941087019709F412608DA10E9424
:104F50001087019709F414608EA10E9410870197B1
:104F600009F4186060E08AA10E94398761E08BA192
:104F70000E94208861E08CA10E94208861E08DA1C0
:104F80000E94208861E08EA10E94208860E089A1B3
:104F90000E943987812F90E0DF91CF911F910F916F
:104FA000FF90EF90DF90CF90BF90AF909F908F9049
:104FB00008958DEF9FEFF0CFEF92FF921F93CF9365
:104FC000DF93EC0161E088A10E94208889A18F3FD6
:104FD00039F061E00E94208860E089A10E94398751
:104FE00061E08AA10E94208860E08AA10E9439873E
:104FF00061E08BA10E94208861E08CA10E94208842
:1050000061E08DA10E94208861E08EA10E9420882D
:105010001FA11F3F61F188A5813029F560E0812F34
:105020000E94398760E0812F0E94208861E0812FF3
:105030000E94208861E0812F0E9439878FE090E0F4
:105040000197F1F7812F0E9410877C0160E0812F8A
:105050000E94398760E0812F0E942088EA94EF281F
:1050600011F08EEF88A761E08FA10E94208890E068
:1050700080E0DF91CF911F91FF90EF900895EF9224
:10508000FF920F931F93CF93DF9300D000D0CDB743
:10509000DEB78091AB0B823009F424C290F48823F0
:1050A00091F1813009F45FC126960FB6F894DEBF06
:1050B0000FBECDBFDF91CF911F910F91FF90EF9069
:1050C0000895833009F4EDC2843071F784E10E94C1
:1050D000B99B85E10E94BC9B87E10E94BC9BEE24AA
:1050E000E39400E020E040E060E080E00E94949BD8
:1050F0000E94839B40E060E088EB94E10E9416955B
:1051000067E67EE2A8C084E10E94B99B85E10E9427
:10511000BC9B8EE00E94BC9B8FE00E94BC9B80E108
:105120000E94BC9B81E10E94BC9B82E10E94BC9BCF
:1051300083E10E94B99B87E10E94BC9B40E060E054
:1051400088EB94E10E94169564EF7EE288EB94E18F
:105150000E946D9080918B0B813009F488C008F417
:105160007FC0823009F486C0833009F486C00E9473
:10517000568D0091E40E1091E50E2091E60E3091CF
:10518000E70E601B710B820B930B64367105810572
:10519000910508F075C08091880990E00E94549BA9
:1051A0008091870990E00E94599B809187098A30FD
:1051B000A0F440E069E088EB94E10E9416956AEE65
:1051C0007EE2CE0101960E94CF8DCE0101960E9413
:1051D000469BCE0101960E94C78D40E06BE088EBB4
:1051E00094E10E9416950E94568D0091E40E109154
:1051F000E50E2091E60E3091E70E601B710B820BDD
:10520000930B643671058105910508F077C066EE51
:105210007EE2CE0101960E94CF8DCE0101960E94C2
:10522000469BCE0101960E94C78D07E719E09FE7D4
:10523000E92E99E0F92EF80181918F010E944F9B90
:10524000E016F106C1F741E060E088EB94E10E94CE
:1052500016956FEC7EE288EB94E10E946D9024CF6E
:1052600062EF7EE288EB94E10E946D9080CF60EF68
:105270007EE2F8CF6EEE7EE2F5CF6CEE7EE2F2CF0C
:10528000E0918B0BF0E0ED57F64F808190E00E94AB
:10529000549BE0918B0BF0E0E158F64F808190E059
:1052A0000E94599BE0918B0BF0E0E158F64F808112
:1052B0008A30A0F440E069E088EB94E10E94169502
:1052C00068EE7EE2CE0101960E94CF8DCE0101965E
:1052D0000E94469BCE0101960E94C78D80918B0B48
:1052E00090E0FC01ED57F64F20812093880981580A
:1052F000964FFC018081809387096FCF64EE7EE238
:10530000CE0101960E94CF8DCE0101960E94469B50
:10531000CE0101960E94C78D10E000E086E8F82ECD
:1053200080918B0B90E0F89EF001F99EF00D112416
:10533000E15AF84FE00FF11F2081203210F4205C79
:105340002083F89EF001F99EF00D1124E15AF84FE8
:10535000E00FF11F80810E944F9B0F5F1F4F0830AD
:105360001105F1F670CF84E10E94B99B85E10E949E
:10537000BC9B8EE00E94BC9B8FE00E94BC9B80E1A6
:105380000E94B99B81E10E94BC9B82E10E94BC9B70
:1053900083E10E94B99B87E10E94BC9B0E94839B92
:1053A00040E060E088EB94E10E94169568EC7EE2B4
:1053B000CE0101960E94CF8DCE0101960E94469BA0
:1053C000CE0101960E94C78D80915E0790E00E94F9
:1053D000549B40E068E088EB94E10E9416958FEFC3
:1053E00090E00E94A2958FEF90E00E94A29560E06D
:1053F00088EB94E10E947E9540E06CE088EB94E1BC
:105400000E94169562EC7EE2CE0101960E94CF8D3D
:10541000CE0101960E94469BCE0101960E94C78D47
:10542000E0918B0BF0E0ED57F64F808190E00E9409
:10543000599B41E060E088EB94E10E94169566E09C
:1054400088EB94E10E947E9541E064E088EB94E172
:105450000E94169567E088EB94E10E947E9541E0FA
:105460006AE088EB94E10E9416956DEB7EE2CE0136
:1054700001960E94CF8DCE0101960E94469BCE01DF
:1054800001960E94C78D41E060E188EB94E10E94A3
:10549000169566E088EB94E10E947E9541E063E119
:1054A00088EB94E10E94169567E088EB94E10E94F6
:1054B0007E9580915D07882309F4F6CD41E060E098
:1054C00088EB94E10E9416956AEA7EE288EB94E10B
:1054D0000E946D9080915E0790E00E94549B68EA64
:1054E0007EE2B9CE84E10E94B99B85E10E94BC9B1B
:1054F0008EE00E94BC9B8FE00E94BC9B80E10E94DA
:10550000B99B81E10E94BC9B82E10E94BC9B83E12C
:105510000E94B99B87E10E94BC9B0E94839B40E054
:1055200061E088EB94E10E94169566EA7EE2CE0186
:1055300001960E94CF8DCE0101960E94469BCE011E
:1055400001960E94C78D8091EB0A90E00E94549BC7
:105550008091EC0A90E00E94599B8091EC0A8A307D
:10556000A0F440E063E088EB94E10E94169564EAC1
:105570007EE2CE0101960E94CF8DCE0101960E945F
:10558000469BCE0101960E94C78D40E066E088EB05
:1055900094E10E94169501E51CE0F80180818032BB
:1055A00010F4805C8083F80181918F010E944F9BF1
:1055B000FCE009351F0789F740E06FE088EB94E1D4
:1055C0000E941695E0918B0BF0E0ED57F64F80812D
:1055D00090E00E94549BE0918B0BF0E0E158F64F75
:1055E000808190E00E94599BE0918B0BF0E0E158A4
:1055F000F64F80818A30A0F440E060E188EB94E1CE
:105600000E94169562EA7EE2CE0101960E94CF8D3D
:10561000CE0101960E94469BCE0101960E94C78D45
:1056200041E061E088EB94E10E94169566E088EB2A
:1056300094E10E947E9541E065E088EB94E10E9450
:10564000169567E088EB94E10E947E9541E068E062
:1056500088EB94E10E9416956DE97EE2CE010196F9
:105660000E94CF8DCE0101960E94469BCE010196ED
:105670000E94C78D41E06EE088EB94E10E94169590
:1056800066E088EB94E10E947E9541E062E188EB60
:1056900094E10E94169567E088EB94E10E947E9564
:1056A00003CD84E10E94B99B83E10E94B99B85E10F
:1056B0000E94BC9B0E94839B40E060E088EB94E1E9
:1056C0000E94169568E87EE288EB94E10E946D9056
:1056D00041E060E088EB94E10E94169563E77EE28A
:1056E00088EB94E10E946D9060915C078EE00E94CF
:1056F000BF9B60915B078FE00E94BF9BD5CCEF9270
:105700000F938091A70B9091A80B079761F480915C
:10571000AB0B823009F4F7C248F4882309F4A4C023
:10572000813009F499C10F91EF900895833009F405
:10573000A1C38430C1F784E10E94BC9B85E10E9433
:10574000BC9B86E10E94B99BE12C00E020E040E098
:1057500060E080E00E94949B8091AD0B882371F003
:105760000E94839B40E060E088EB94E10E941695E4
:1057700060E87BE288EB94E10E946D9041E060E09C
:1057800088EB94E10E94169566E77BE288EB94E152
:105790000E946D9041E069E088EB94E10E941695CB
:1057A0008091A2066AE67BE2813041F48091C10AD1
:1057B00062E77BE2811102C06EE67BE288EB94E156
:1057C0000E946D9041E06DE088EB94E10E94169597
:1057D0008091A2066EE57BE2823041F48091C10A9D
:1057E00066E67BE2811102C062E67BE288EB94E12F
:1057F0000E946D9041E061E188EB94E10E94169572
:105800008091A20662E57BE2833041F48091C10A77
:105810006AE57BE2811102C066E57BE288EB94E1F8
:105820000E946D9061E47BE288E89DE00E946D90AB
:105830008091C10A882321F08CE39BE20E94919021
:105840008091C10A811104C087E39BE20E9491907C
:1058500066E27BE288E89DE00E946D908091A2065E
:105860000F91EF900C941D9084E10E94BC9B85E108
:105870000E94BC9B86E10E94B99B83E10E94B99B78
:105880008091AD0B882371F00E94839B40E060E023
:1058900088EB94E10E9416956AEF7DE288EB94E133
:1058A0000E946D9041E060E088EB94E10E941695C3
:1058B00020918F09822F90E02A3008F04DC0FC0122
:1058C0008827EA59F34D8F4F0C94D3AD702C912C4F
:1058D000942C972C9A2C9D2CA02CA32CA62CA92C74
:1058E00065EF7DE288EB94E10E946D9041E064E019
:1058F00088EB94E10E94169580918E098B3009F413
:1059000098C0C0F5823009F48BC048F5882309F4AB
:1059100084C06EEB7DE28130C9F190E00E946B9B08
:1059200039C060EF7DE2DECF6BEE7DE2DBCF66EE6D
:105930007DE2D8CF61EE7DE2D5CF6CED7DE2D2CFB6
:1059400067ED7DE2CFCF62ED7DE2CCCF6DEC7DE205
:10595000C9CF68EC7DE2C6CF0E94599BC7CF853086
:1059600009F461C0873009F461C08330B1F664EB9B
:105970007DE20CC08F3209F462C008F044C0873168
:1059800009F45AC06BE97DE2833239F688EB94E181
:105990000E946D9041E069E088EB94E10E941695C9
:1059A00065E87DE288EB94E10E946D9080918D091D
:1059B00090E00E94549B80918D09823008F448C089
:1059C00080E10E94B99B41E06DE088EB94E10E9488
:1059D000169580918C0990E00E94599B41E062E10C
:1059E00088EB94E10E94169580918B0990E00E94CB
:1059F000549B80918B09882309F437C282E10F916F
:105A0000EF900C94B99B8F35E9F08F3BF1F0873420
:105A100009F083CF61E97DE2B9CF63EC7DE2B6CFD7
:105A200069EB7DE2B3CF6FEA7DE2B0CF6AEA7DE257
:105A3000ADCF65EA7DE2AACF60EA7DE2A7CF66E955
:105A40007DE2A4CF6CE87DE2A1CF67E87DE29ECF46
:105A500080E10E94BC9BB7CF84E10E94BC9B85E1A2
:105A60000E94BC9B86E10E94B99BE12C00E020E0F3
:105A700040E060E080E00E94949B8091AD0B882321
:105A800071F00E94839B40E060E088EB94E10E940B
:105A9000169560E77DE288EB94E10E946D9041E00D
:105AA00060E088EB94E10E9416958091890962E597
:105AB0007DE28830E9F008F098C061E67DE283304D
:105AC000B9F070F46BE67DE2882391F066E67DE242
:105AD000813071F090E00E946B9B67E37DE208C02B
